:0400000007EF00F016
:100008005A82CAED06F0E5EF08F0D9EC07F0000EC9
:100018000001856F000E0001936F000E926F000EB5
:100028000001956F000E946F000E0001846F000EA2
:10003800836F000E0001906F000E8F6F000E00019D
:10004800996F000E00019A6F000E00019B6F000E61
:100058000001966F000E0001976F000E0001986F67
:10006800000E00019D6F000E00019E6F000E000142
:100078009F6F000E00018C6F000E00018D6F000E47
:1000880000018E6F000E0001806F000E0001816F6D
:10009800000E0001826F59C09CF057C0A0F0000EFE
:1000A800116E6A0E106E9C0E126E000E136E010E0B
:1000B800146E010E156E000E166E28EC04F0000E7C
:1000C800116E6A0E106EA00E126E000E136E010EE7
:1000D800146E8EEC03F0D40E0001A019D8A407D03A
:1000E8008A82A0C010F0116A66EC08F003D08A92E8
:1000F80007EF00F0200E00019C6F58C091F0000E31
:10010800116E6A0E106E9C0E126E000E136E010EAA
:10011800146E010E156E000E166E28EC04F0000E1B
:10012800116E6A0E106E910E126E000E136E010E95
:10013800146E000E156E010E166E28EC04F02D0ECE
:1001480000019C6F000E116E6A0E106E9C0E126EEE
:10015800000E136E010E146E010E156E000E166E53
:1001680028EC04F0000E116E6A0E106EA00E126ECE
:10017800000E136E010E146E8EEC03F0A0C092F008
:100188000001936B00019251936F926B2C0E00014A
:100198009C6F000E116E6A0E106E9C0E126E000E91
:1001A800136E010E146E010E156E000E166E28ECFD
:1001B80004F0000E116E6A0E106EA00E126E000E84
:1001C800136E010E146E8EEC03F00001A0510001B5
:1001D800921389EC08F0260E00019C6F000E116E38
:1001E8006A0E106E9C0E126E000E136E010E146EC7
:1001F800010E156E000E166E28EC04F0000E116E3E
:100208006A0E106EA00E126E000E136E010E146EA2
:100218008EEC03F00001A0510008280F0001856F43
:1002280092C017F093C018F0C9EC08F017C099F005
:1002380018C09AF019C09BF0000E266E000E276EAB
:10024800470E286E99C029F09AC02AF09BC02BF05F
:1002580013EC07F0D8B02AD0FF0E1D6E7F0E1E6E6D
:10026800470E1F6E99C017F09AC018F09BC019F07E
:1002780011EC09F017C01AF018C01BF019C01CF0D7
:10028800B8EC02F01AC086F01BC087F01CC088F0DA
:1002980086C017F087C018F088C019F011EC09F073
:1002A80017C099F018C09AF019C09BF099C026F0B1
:1002B8009AC027F09BC028F05C0E296E0F0E2A6E9C
:1002C8003C0E2B6EADEC04F026C099F027C09AF0D6
:1002D80028C09BF0000E386E000E396E400E3A6E44
:1002E80052C029F053C02AF054C02BF08CC01DF026
:1002F8008DC01EF08EC01FF099C01AF09AC01BF076
:100308009BC01CF0B8EC02F01AC026F01BC027F006
:100318001CC028F0ADEC04F026C035F027C036F03C
:1003280028C037F0A1EC05F035C089F036C08AF056
:1003380037C08BF09DC01AF09EC01BF09FC01CF008
:10034800000E296E610E2A6E440E2B6E000E386E5A
:10035800960E396E420E3A6E89C035F08AC036F074
:100368008BC037F0A1EC05F035C026F036C027F079
:1003780037C028F0ADEC04F026C01DF027C01EF0F1
:1003880028C01FF0B8EC02F01AC09DF01BC09EF008
:100398001CC09FF099C08CF09AC08DF09BC08EF065
:1003A800000E266EB40E276E430E286E9DC029F0EF
:1003B8009EC02AF09FC02BF013EC07F0D8A010D0F5
:1003C8009DC026F09EC027F09FC028F0000E296E21
:1003D800B40E2A6EC30E2B6E13EC07F0D8B03AD0C9
:1003E8009DC00FF09EC010F09FC011F027EC05F0E3
:1003F8000FC01EF010C01FF0010E216E680E206E97
:100408005BEC07F01EC08FF01FC090F09DC026F077
:100418009EC027F09FC028F08FC00FF090C010F04A
:10042800010E126E680E116EFEEC08F00FC017F088
:1004380010C018F0C9EC08F017C029F018C02AF04D
:1004480019C02BF0A9EC08F026C09DF027C09EF03B
:1004580028C09FF09DC01DF09EC01EF09FC01FF0D9
:1004680096C017F097C018F098C019F011EC09F071
:1004780017C01AF018C01BF019C01CF0B8EC02F035
:100488001AC026F01BC027F01CC028F0D70E296E12
:10049800230E2A6E3C0E2B6E13EC07F0D8B02CD02E
:1004A800D70E266E230E276EBC0E286E9DC01DF03B
:1004B8009EC01EF09FC01FF096C017F097C018F09E
:1004C80098C019F011EC09F017C01AF018C01BF009
:1004D80019C01CF0B8EC02F01AC029F01BC02AF0B1
:1004E8001CC02BF013EC07F0D8B006D096C09DF0D6
:1004F80097C09EF098C09FF09DC096F09EC097F060
:100508009FC098F00001834B842B9DC00FF09EC0C4
:1005180010F09FC011F027EC05F00FC094F010C048
:1005280095F0000E116EAA0E106E66EC08F0000E23
:10053800116EBB0E106E66EC08F095C044F0456A6B
:1005480044BE456844C010F045C011F066EC08F0A0
:1005580094C010F095C011F066EC08F023EC09F097
:1005680034EC09F08A90EBD51CC020F0216A226A8D
:100578001B34203601E321802050256E1FC020F057
:10058800216A226A1E34203601E321802050246E1D
:100598002550D8B40BD02450255CD8B00ED02550A7
:1005A80000082424206E180E206407D01DC01AF0FD
:1005B8001EC01BF01FC01CF012002450D8B40BD072
:1005C8002550245CD8B00ED0245000082524206E75
:1005D800180E206407D01AC01AF01BC01BF01CC0EC
:1005E8001CF01200060E236E1CBE238E1FBE238C29
:1005F8001B8EFF0E1A16FF0E1B16000E1C161E8EE3
:10060800FF0E1D16FF0E1E16000E1F162450255C29
:10061800D8B01BD0D8901D361E361F36240625505C
:100628002418D8B40DD0230623C020F0070E2016B6
:10063800D8B406D0EFD7D8901C321B321A32252AEC
:1006480024502518D8B41FD0F6D72550245CD8B02C
:100658001AD0D8901A361B361C3625062550241871
:10066800D8B40DD0230623C020F0070E2016D8B426
:1006780006D0EFD7D8901F321E321D32242A2450BC
:100688002518D8A4F7D723AE0CD0FF0E1A1AFF0EE0
:100698001B1AFF0E1C1A010E1A26000E1B22000E32
:1006A8001C2223AC0CD0FF0E1D1AFF0E1E1AFF0EC3
:1006B8001F1A010E1D26000E1E22000E1F22000EFC
:1006C800236E1A501D261B501E221C501F221FAEBF
:1006D8000ED0FF0E1D1AFF0E1E1AFF0E1F1A010E56
:1006E8001D26000E1E22000E1F22010E236E1DC0A5
:1006F8000FF01EC010F01FC011F025C012F023C06B
:1007080013F073EC06F00FC01AF010C01BF011C004
:100718001CF01200000E1A6E000E1C6E000E1B6EEE
:10072800C580C5B002D0010E01D0000E0FEC08F054
:100738001A6E1A50D8A4F5D79E96D8801034C96E70
:100748009EA602D0010E01D0000E0FEC08F01A6E22
:100758001A50D8A4F5D79E96C5BC02D0010E01D078
:10076800000E0FEC08F01A6E1A50D8A4F5D7C586FB
:10077800000E1C6E000E1B6E4DD0C7A002D0010EDD
:1007880001D0000E0FEC08F01A6E1A50D8A4F5D755
:10079800FF0E156EFF0E166E1450176E186A155060
:1007A8001726165018221B50171806E11C50181847
:1007B800D8A402D0C58A15D0FF0E156EFF0E166E8E
:1007C8001450176E186A155017261650182217500D
:1007D8001B5C1C50800A196E1850800A1958D8A042
:1007E800C59AC588C5B802D0010E01D0000E0FEC1D
:1007F80008F01A6E1A50D8A4F5D71B501224D96ED7
:100808001C501320DA6EC9CFDFFF9EA612009E96F9
:100818001B4A1C2A1450156E166A15501B5C1C5076
:10082800800A176E1650800A1758D8A0A6D7C58414
:10083800C5B402D0010E01D0000E0FEC08F01A6EFC
:100848001A50D8B41200F4D7000E1A6E000E1C6E9F
:10085800000E1B6E1550D8B40CD0C580C5B002D0A0
:10086800010E01D0000E0FEC08F01A6E1A50D8A431
:10087800F5D79E9610501024C96E9EA602D0010E80
:1008880001D0000E0FEC08F01A6E1A50D8A4F5D754
:100898009E96C5BC02D0010E01D0000E0FEC08F0E8
:1008A8001A6E1A50D8A4F5D7000E1C6E000E1B6ED7
:1008B80022D01B501224D96E1C501320DA6EDF5040
:1008C800C96E9EA602D0010E01D0000E0FEC08F0F2
:1008D8001A6E1A50D8A4F5D79E96C5BC02D0010E40
:1008E80001D0000E0FEC08F01A6E1A50D8A4F5D7F4
:1008F8009E961B4A1C2A1450176E186A17501B5CC8
:100908001C50800A196E1850800A1958D8A0D1D7DF
:100918001650D8B40DD0C584C5A402D0010E01D09C
:10092800000E0FEC08F01A6E1A50D8A41200F4D773
:10093800020E1618D8A41200C582C5A202D0010E54
:1009480001D0000E0FEC08F01A6E1A50D8A412004D
:10095800F4D728C02CF02D6A2E6A27342C3601E3F0
:100968002D802C502F6E2F50D8A407D0000E266E45
:10097800000E276E000E286E12002BC02CF02D6A78
:100988002E6A2A342C3601E32D802C50346E3450D4
:10099800D8A407D0000E266E000E276E000E286E13
:1009A800120034507B0F2F2628C034F02B50341AF5
:1009B800800E3416278E2A8EFF0E2916FF0E2A1651
:1009C800000E2B16000E306E000E316E000E326EC9
:1009D800070E336E26A006D0295030262A50312221
:1009E8002B503222D890283227322632D8902936F6
:1009F8002A362B36332EEED7090E336E26A006D0B4
:100A0800295030262A5031222B503222D8902832B1
:100A180027322632D890323231323032332EEED766
:100A280030C00FF031C010F032C011F02FC012F0FA
:100A380034C013F073EC06F00FC026F010C027F096
:100A480011C028F0120011C013F0146A156A10348E
:100A5800133601E3148013501D6E1D50D8A409D01D
:100A6800000E0F6E000E106E000E116E000E126E4C
:100A78001200170E136E0FC014F010C015F011C03D
:100A880016F01328176E04D0D89016321532143287
:100A9800172EFAD71450186E108EFF0E0F16FF0E71
:100AA8001016000E11160F50196E10501A6E1150B4
:100AB8001B6E1C6A8E0E1D5E1DAE16D01D50800A60
:100AC8008F0FD8B009D0000E0F6E000E106E000EFA
:100AD800116E000E126E1200D8901C321B321A32A0
:100AE80019321D3EF9D715D0170E1D640FD0000E10
:100AF8000F6E000E106E000E116E000E126E1200B8
:100B0800D89019361A361B361C361D061D50D8A427
:100B1800F7D71850D8B408D01C1E1B1E1A1E196C03
:100B2800000E1A221B221C2219C00FF01AC010F046
:100B38001BC011F01CC012F0120037C03BF03C6A19
:100B48003D6A36343B3601E33C803B50426E4250AE
:100B5800D8A407D0000E356E000E366E000E376E24
:100B680012003AC03BF03C6A3D6A39343B3601E337
:100B78003C803B50436E4350D8A407D0000E356EDE
:100B8800000E366E000E376E1200000E3F6E000E1D
:100B9800406E000E416E4350890F425E37C043F0ED
:100BA8003A50431A800E4316368EFF0E3516FF0E46
:100BB8003616000E3716398EFF0E3816FF0E391608
:100BC800000E3A16180E3E6ED8903F364036413623
:100BD8003850355C395036583A503758D8A007D075
:100BE8003850355E3950365A3A50375A3F80D89087
:100BF8003536363637363E2EE7D73FC00FF040C081
:100C080010F041C011F042C012F043C013F073EC71
:100C180006F00FC035F010C036F011C037F01200E2
:100C280011D0AF681200810EAF6E12002A0EAF6E9F
:100C38001200200EAF6E1200150EAF6E12000A0ED3
:100C4800AF6E12000FC013F010C014F011C015F0F1
:100C580012C016F01650000AD8A4120035D014504D
:100C6800250AD8B407D06E0AD8B409D0AA0AD8A4DD
:100C780012000AD01350800AD8A41200D2D71350F9
:100C8800000AD8A41200CFD71350000AD8A4120023
:100C9800CDD714502C0AD8B404D0EE0AD8A4120028
:100CA80005D01350000AD8A41200C3D71350000A65
:100CB800D8A41200C1D71450840AD8A41200135023
:100CC800000AD8A41200BBD71550000AD8B4C7D759
:100CD800010AD8B4DED7020AD8A41200ECD7125001
:100CE800D8B405D00F5010101110D8A40CD0000E95
:100CF8000F6E000E106E000E116E1200122AD890A0
:100D0800113210320F32000E0F14146E000E101430
:100D1800156EFE0E1114166E145015101610D8B458
:100D28000CD0ECD7122A010E0F26000E1022000E4E
:100D38001122D890113210320F32000E0F14146E97
:100D4800000E1014156EFF0E1114166E14501510A7
:100D58001610D8B406D0E6D71206D8900F3610363B
:100D6800113610BE03D0020E1260F6D712A0109EE4
:100D7800D8901232125011121350D8A4118E0FC0ED
:100D88000FF010C010F011C011F012000600FACFD9
:100D980001F0FBCF02F0E9CF03F0EACF04F0E1CF96
:100DA80005F0E2CF06F0D9CF07F0DACF08F0F3CF9D
:100DB80009F0F4CF0AF0F6CF0BF0F7CF0CF0F8CF2C
:100DC8000DF0F5CF0EF0F2A40CD0010E4A26000E5D
:100DD8004B224C224D22F294FC0ED76E180ED66E82
:100DE8008A800EC0F5FF0DC0F8FF0CC0F7FF0BC0DE
:100DF800F6FF0AC0F4FF09C0F3FF08C0DAFF07C016
:100E0800D9FF06C0E2FF05C0E1FF04C0EAFF03C046
:100E1800E9FF02C0FBFF01C0FAFF5A92110028AE99
:100E280016D026C02CF027C02DF028C02EF02C1E7E
:100E38002D1E2E1E2C2A000E2D222E22000E2C24B2
:100E4800266E000E2D20276E800E2E20286E2BAECB
:100E580016D029C02CF02AC02DF02BC02EF02C1E45
:100E68002D1E2E1E2C2A000E2D222E22000E2C2482
:100E7800296E000E2D202A6E800E2E202B6E000E5D
:100E8800261A000E271A800E281A000E291A000E9C
:100E98002A1A800E2B1A2950265C2A5027582B50C4
:100EA8002858D8B002D0D8901200D8801200000E6E
:100EB800236E21AE06D0206C211ED8B0212A010E47
:100EC800236E1FAE06D01E6C1F1ED8B01F2A010E3F
:100ED800231A000E256E000E246E20502110D8B45F
:100EE8001CD0010E226E04D0D89020362136222A3A
:100EF80021AEFAD7D8902436253620501E5C2150D2
:100F08001F58D8A005D020501E5E21501F5A24809B
:100F1800D89021322032222EEDD72350D8B404D0D5
:100F2800246C251ED8B0252A24C01EF025C01FF029
:100F38001200000E206E8E0E1F6E1AAE11D01A1EF1
:100F4800191E181E176C000E182219221A22010EDB
:100F5800206E06D0D8901A321932183217321F2A4A
:100F6800000E17141B6E000E18141C6E000E1914B8
:100F78001D6EFF0E1A141E6E1B501C101D101E1025
:100F8800D8A4E8D717C00FF018C010F019C011F096
:100F98001FC012F020C013F073EC06F00FC017F05A
:100FA80010C018F011C019F01200000E966E96CFFE
:100FB80095FF95CF94FF94CF93FF93CF92FF000EA8
:100FC8008D6E8DCF8CFF8CCF8BFF8BCF8AFF8ACF16
:100FD80089FF180E946E200EC76E280EC66E080E76
:100FE800C56E180EC86E880ED56ED09EF184F29A22
:100FF800F29EFC0ED76E180ED66E800E0F6E250E62
:10100800106E000E116E000E126E14EC06F02CEC31
:1010180009F0F28E12000F6E010E4E26000E4F22BE
:10102800502251220F04D8A415D051BE09D05150D6
:10103800501010E1E80E4E5C030E4F58D8B00AD09D
:10104800000E4E6E000E4F6E000E506E000E516E6A
:10105800000E120051BE0BD05150501006E1E90E9F
:101068004E5C030E4F58D8A002D0FF0E1200010E9E
:1010780012000F6E010E4626000E47224822492212
:101088004950481006E1890E465C130E4758D8A00F
:101098000AD0000E466E000E476E000E486E000E17
:1010A800496EFF0E12000F50D8A40AD0000E466EEB
:1010B800000E476E000E486E000E496E010E1200BB
:1010C800000E1200ACB202D0010E01D0000E3DECB1
:1010D80008F0126E1250146E156A14501510D8B418
:1010E800F1D7142803E11528D8B4120010C0ADFFB9
:1010F800ACAC120011C012F0136A12BE1368AC50E7
:101108001218FE0B1218AC6E1200F29A4AC017F0B1
:101118004BC018F04CC019F04DC01AF09DEC07F008
:1011280017C026F018C027F019C028F0B70E296E8E
:10113800D10E2A6E380E2B6EADEC04F026C052F09C
:1011480027C053F028C054F0120029502A102B1041
:10115800D8B406D0000E291A000E2A1A800E2B1AAF
:1011680026C01AF027C01BF028C01CF029C01DF0AB
:101178002AC01EF02BC01FF0B8EC02F01AC026F0EF
:101188001BC027F01CC028F01200000E1A6E18AE03
:1011980006D0176C181ED8B0182A010E1A6E17C080
:1011A8000FF018C010F0116A8E0E126E1AC013F0EC
:1011B80073EC06F00FC017F010C018F011C019F04A
:1011C8001200740EF66E120EF76E000EF86E09001D
:1011D800F5CF58F00900F5CF59F000EE46F0120EA1
:1011E800EE6AE806FDE15A905A92000EF86E000188
:1011F80009EF00F00F501102F3CF13F0F4CF14F001
:101208000F501202F350142610501102F3501426F6
:1012180013C00FF014C010F0120017501810191056
:10122800D8B406D0000E171A000E181A800E191A14
:1012380017C017F018C018F019C019F01200000EE6
:101248004A6E000E4B6E000E4C6E000E4D6E120074
:10125800949C948EA60EAC6EB00EAB6EAF68120066
:0E126800FC0ED76E180ED66EF28A12000F0F13
:020000040020DA
:08000000FFFFFFFFFFFFFFFF00
:020000040030CA
:0E000000FF060000FF8080FF0FC00FE00F40E2
:00000001FF
